:020000040800F2
:100000007062002061020008431800083F150008D4
:10001000411800083D040008FD1C00080000000015
:10002000000000000000000000000000A101000826
:100030003906000800000000FD0100085D190008F5
:100040007B0200087B0200087B0200087B0200089C
:100050007B0200087B0200087B0200087B0200088C
:100060007B0200087B0200087B0200087B0200087C
:100070007B0200087B0200087B0200087B0200086C
:100080007B0200087B0200087B0200087B0200085C
:100090007B0200087B0200087B0200083B06000888
:1000A0007B0200087B0200087B0200087B0200083C
:1000B0007B020008291A00087B0200087B02000866
:1000C0007B0200087B0200087B0200087B0200081C
:1000D0007B0200087B0200087B0200087B0200080C
:1000E0007B0200087B0200087B0200087B020008FC
:1000F0007B0200087B0200087B0200087B020008EC
:100100007B0200087B0200087B0200087B020008DB
:100110007B0200087B020008351A00087B020008F9
:100120007B0200087B0200087B0200087B020008BB
:100130007B0200087B0200087B0200087B020008AB
:100140007B0200087B0200087B0200087B0200089B
:100150007B0200087B0200087B0200087B0200088B
:100160007B0200087B0200087B0200087B0200087B
:100170007B0200087B0200087B02000800000000F0
:100180007B0200087B020008DFF810D000F0EEF8D8
:1001900000480047A51F0008AFF3008070620020F0
:1001A0002C4B19680868B0E8F04F80F30988BFF35A
:1001B0006F8F4FF0000080F311887047000000003F
:1001C00008480068006880F308884FF0000080F35A
:1001D000148862B661B6BFF34F8FBFF36F8F00DF35
:1001E00000BF00BF08ED00E0DFF80C00016841F43B
:1001F00070010160704700BF88ED00E0EFF30980F7
:10020000BFF36F8F134B1A681EF0100F08BF20ED5D
:10021000108A20E9F04F106009B44FF0500080F3CD
:100220001188BFF34F8FBFF36F8F02F02BFE4FF09B
:10023000000080F3118809BC19680868B0E8F04F25
:100240001EF0100F08BFB0EC108A80F30988BFF3CE
:100250006F8F704740000020EFF30580704700006B
:100260000648804706480047FEE7FEE7FEE7FEE750
:10027000FEE7FEE7FEE7FEE7FEE7FEE70D1A0008F1
:10028000890100082DE9F05F0546002092469B4653
:1002900088460646814640241BE02846414647469C
:1002A000224600F053F853465A46C01A914110D3E3
:1002B00011461846224600F03AF82D1A67EB01085D
:1002C0004F4622460120002100F031F817EB0009CB
:1002D0004E41201EA4F10104DFDC484631462A4687
:1002E0004346BDE8F09F40EA01039B0703D009E0C5
:1002F00008C9121F08C0042AFAD203E011F8013B12
:1003000000F8013B521EF9D27047D2B201E000F86A
:10031000012B491EFBD270470022F6E710B51346A9
:100320000A4604461946FFF7F0FF204610BD202A72
:1003300004DB203A00FA02F1002070479140C2F13C
:10034000200320FA03F3194390407047202A04DB6E
:10035000203A21FA02F00021704721FA02F3D0403E
:10036000C2F120029140084319467047064C074DE0
:1003700006E0E06840F0010394E807009847103475
:10038000AC42F6D3FFF704FF883A0008A83A000809
:1003900010B501F003F901F0D3F800F051F801F0C5
:1003A000ABFCBDE8104001A001F0AABC4170702078
:1003B000496E6974204F4B0D0A00000038B500F0FB
:1003C00079FA10490A68821AB2F57A7F13D3086065
:1003D000081D00F063F8044601460BA001F090FCF4
:1003E0004CB90848001D417800910378C2788178A3
:1003F0000AA001F085FC01F0ABF8BDE8384001F03F
:1004000011B90000280000204448543131207265A1
:1004100074203D2025640D0A00000000CEC2B6C83D
:10042000A3BA25642E2564A1E6A3AC20CAAAB6C847
:10043000A3BA25642E2564A3A50D0A00FEE70000DB
:1004400010B500F009F80122BDE81040D1020148C2
:1004500000F02BBA0004024000B587B014216846B2
:10046000FFF75AFF0B480021026842F002020260C7
:10047000006800F0020005904FF400600090012039
:10048000CDE9020101906946034800F009F907B07F
:1004900000BD000030380240000402402DE9F04F5A
:1004A00087B00027044600970197FFF7D5FF3A4E23
:1004B0004FF4006500222946304600F0F6F912207C
:1004C00000F0C0F801222946304600F0EEF91E2067
:1004D00000F09EF8142102A8FFF71EFF02AA4FF0B9
:1004E000010882E8A00102A9304600F0D9F8642191
:1004F000002000F053F858BB6421012000F04EF8B2
:1005000030BB6421002000F049F808BBB246A94680
:10051000EB4646460025D8464621012000F03EF82D
:10052000B0B9282000F074F84946504600F0B0F900
:10053000012811D118F80710C5F1070206FA02F2D6
:10054000114308F807104621002000F027F818B1E1
:10055000012007B0BDE8F08F6D1CEDB2082DDBD394
:100560007F1CFFB2052FD5D39DF800109DF80130F8
:100570009DF802209DF80300CD18161835449DF80B
:100580000460EDB2AE4201D00220E2E72170637058
:10059000A270E0700020DCE7000402402DE9F04783
:1005A0000E4D07466E680E480E4A4FF4006800680C
:1005B000DFF83490B0FBF2F44C4306E06868801B2F
:1005C000A04202D90120BDE8F0874146484600F02C
:1005D0005FF9B842F2D10020F5E70000001000E01A
:1005E0003C00002040420F00000402400648016821
:1005F00041F080710160054800214160016841F0CF
:100600000101016070470000FCED00E0001000E017
:10061000064A10B553680649064C0968B1FBF4F167
:1006200041435068C01A8842FBD310BD001000E05F
:100630003C00002040420F007047402000F024B8EA
:1006400072B6FEE770B5044600F034F90546601C4A
:1006500002D004480078044400F02CF9401BA0426A
:10066000FAD370BD3000002010B5402809D100F049
:1006700021F904494A68821AC82A02D901228A60EB
:10068000486010BD18000020044910B50A680242F5
:1006900002D00860FFF7E8FF10BD0000143C0140E5
:1006A0002DE9F84FDFF8BCA1002201250AF1040B67
:1006B00003264FF00F090BF1040E00BF0B6805FA7B
:1006C00002F42340A34270D10F7907F00307012FF2
:1006D00001D0022F16D187684FEA420806FA08FCBB
:1006E00027EA0C07D1F80CC00CFA08FC4CEA070CFE
:1006F000C0F808C04768A7430C79C4F300149440BD
:100700003C4344600C79E443A4070AD0C4684FEA30
:10071000420C06FA0CF7BC438F6807FA0CF7274324
:10072000C7600C7904F00304022C12D1D40800EB4A
:10073000840CDCF820405707FF0E09FA07F824EA7A
:100740000804D1F8108008FA07F848EA0408CCF841
:10075000208004684FEA420C06FA0CF7BC430F797C
:1007600007F0030707FA0CF7274307604C6814F4F7
:10077000403F70D03C4C276847F48047276024688E
:1007800022F0030704F480440094384C07EB040C77
:10079000DCF8084897074FEA177809FA08F7BC43CE
:1007A000334FB84202D1002724E054E0314FB84221
:1007B00001D101271EE0304FB84201D1022719E0D4
:1007C0002E4FB84201D1032714E02D4FB84201D17A
:1007D00004270FE02B4FB84201D105270AE02A4F2A
:1007E000B84201D1062705E0284FB84201D10727BA
:1007F00000E0082707FA08F72743CCF80878DAF86A
:1008000000405746D1F804C09C435FEACC3C00D579
:100810001C433C60DBF800405F46D1F804C09C43B9
:100820005FEA8C3C00D51C433C60DEF80040774614
:10083000D1F804C09C435FEACC2C00D51C433C603B
:10084000084F0C373C68D1F804C09C435FEA8C2CFD
:1008500000D51C433C60521C102AFFF42FAFBDE8AA
:10086000F88F0000003C0140443802400030014055
:10087000000002400004024000080240000C024058
:10088000001002400014024000180240001C024008
:100890000069084000D001207047426921EA020344
:1008A0000A4043EA0241816170470AB181617047A1
:1008B0000904FBE701488068704700003000002011
:1008C000024881680278114481607047300000203E
:1008D0000B4810B5016841F400710160016841F4F2
:1008E00080610160016841F480710160032000F0C3
:1008F0008DF80F2000F006F800F03EF8002010BD43
:10090000003C024010B5014688B00022362000F0BD
:100910005DF8362000F04CF813480024016841F0DF
:1009200010010160006805A900F0100006906846FB
:1009300000F018F900F036F90C494000B0FBF1F175
:100940000C480B4A491E026040F2E732C0E903241A
:10095000C0E9011400F078FB10B1012008B010BD0F
:10096000044800F0BDFBF9E74038024040420F0068
:1009700000100040500100200C4882B0016841F492
:1009800080410160006800F4804000900748001F2B
:10099000016841F0805101600068002200F0805041
:1009A00000900F21901E02B000F010B844380240B1
:1009B000002809DB00F01F0201219140400980005E
:1009C00000F1E020C0F8001170470000F0B40E4BB9
:1009D0001B680C46C3F30223C3F10705042D00D99D
:1009E0000425191D072901D2002300E0DB1E012682
:1009F00006FA05F1491E214099409E40761E164098
:100A00003143F0BC01F08CB90CED00E0064900F078
:100A1000070208684FF6FF03184040EA0220034A25
:100A200010430860704700000CED00E00000FA057C
:100A30002DE9F0470E46050065D0DFF81481D8F89F
:100A40000000F7B200F00700B04207D288F800704B
:100A5000D8F8000000F00700B04254D128683D4C9F
:100A6000810712D5400703D5206840F4E05020608C
:100A70002878000703D5206840F460402060206893
:100A8000A96820F0F000084320602878C0072DD026
:100A9000304968680839012812D0022813D0032889
:100AA00011D00968890700292DDA216821F0030196
:100AB00001432160FFF7FEFE814641F2883A0EE0D5
:100AC00009688903EFE709688901ECE7FFF7F2FE9F
:100AD000A0EB0901514502D90320BDE8F087206849
:100AE000696800F00C00B0EB810FEFD1D8F800106E
:100AF000404601F00701B14207D90770006800F0D5
:100B00000700B04201D00120E7E72878400705D56B
:100B10002068E96820F4E050084320602878000746
:100B200006D52068296920F4604040EAC1002060B1
:100B300000F058F82168084AC1F30311515CC8401D
:100B40000649086006480068FFF7DCFE0020C4E79D
:100B5000003C024008380240403A00083C000020B7
:100B6000340000200F2202600C4A136803F00303D4
:100B70004360136803F0F0038360136803F4E053E9
:100B8000C36012684FF4E05303EAD20202610448E2
:100B9000006800F007000860704700000838024055
:100BA000003C02400448054900680968044AC1F352
:100BB0008221515CC84070473C0000200838024048
:100BC000503A00080448054900680968044AC1F31E
:100BD0004231515CC84070473C0000200838024058
:100BE000503A0008154810B5006810F00C0214487F
:100BF00013D01449042A0FD0082A0ED10F4C241FF9
:100C00002268236802F03F025B0207D52068C0F328
:100C10008810A0FB010106E0084610BD2168C1F361
:100C20008811A1FB00010023FFF72CFB2168C1F311
:100C30000141491C4900B0FBF1F010BD08380240E9
:100C40000024F40040787D012DE9F84F04006ED0B7
:100C50002078DFF84C93C007A9F104054AD009F1C8
:100C600004000168C1F38101012908D00068C0F3C4
:100C7000810002280AD1D9F80000400206D5286870
:100C8000800337D560680028E1D033E06068B0F5B4
:100C9000803F10D0B0F5A02F286810D020F480300D
:100CA0002860286820F4802028606068A8B1FFF7D9
:100CB00001FE06460DE0286840F48030F4E740F479
:100CC00080202860F7E700BFFFF7F4FD801B642851
:100CD00073D828688003F7D50CE0FFF7EBFD0646D4
:100CE00005E000BFFFF7E6FD801B6428F0D8286808
:100CF0008003F7D42078DFF8AC8280074FF0000A39
:100D00003ED5A748001D016811F00C0F08D00068FF
:100D1000C0F3810002280BD1D9F80000400207D4AB
:100D20002868800716D5E068012800D112E033E179
:100D3000E068B8B10120C8F80000FFF7BBFD064627
:100D400005E000BFFFF7B6FD801B0228C0D8286869
:100D50008007F7D52868216920F0F80040EAC10033
:100D600028600DE0C8F800A0FFF7A4FD064604E0E7
:100D7000FFF7A0FD801B02281FD828688007F7D442
:100D80002078000722D5864F87486169703771B196
:100D900001210160FFF78EFD064604E0FFF78AFDA2
:100DA000801B022809D838688007F7D50EE0C0F804
:100DB00000A0FFF77FFD064605E082E0FFF77AFD21
:100DC000801B02287DD838688007F7D42078400738
:100DD00068D5DFF8CCB100270BF13C0BDBF8000045
:100DE000C0000BD4DBF8001041F08051CBF80010AC
:100DF000DBF80000012700F0805000906B4E306857
:100E0000C00510D4306840F480703060FFF752FDA8
:100E1000009005E0FFF74EFD0099401A022850D8D7
:100E20003068C005F6D55E4EA0686C3601280FD03C
:100E30000528306810D020F001003060306820F0C4
:100E400004003060A068B8B1FFF734FD00900FE0F7
:100E5000306840F00100F4E740F004003060F7E74C
:100E6000FFF728FD0099411A41F28830814266D887
:100E700030688007F4D50EE0FFF71CFD009007E016
:100E8000FFF718FD0099411A41F28830814256D887
:100E900030688007F4D42FB1DBF8001021F08051C6
:100EA000CBF80010A069C8B33D49091D0968C1F31A
:100EB000810102294AD00228504607D0C8F86000B4
:100EC00000E03CE0FFF7F6FC04463BE04746C8F88C
:100ED0006000FFF7EFFC064605E000BFFFF7EAFC05
:100EE000801B02282BD828688001F7D4D4E9070199
:100EF0000843A16A2E4A490802EB0141626A41EAAD
:100F00008211084394F82C1040EA0161C9F80010DE
:100F100001203866FFF7CEFC044606E03EE000BF45
:100F2000FFF7C8FC001B022809D828688001F7D504
:100F300034E000BFFFF7BEFC001B022802D90320EB
:100F4000BDE8F88F28688001F4D427E00128F7D0A5
:100F5000D9F80000E26900F4800191421CD1226AB4
:100F600000F03F01914217D147F6C071626A01401B
:100F7000B1EB821F10D1A26A4FF0FF3300F4403171
:100F800003EB5202B1EB024F06D194F82C1000F0A3
:100F90007060B0EB016F01D00120D1E70020CFE7F6
:100FA0000438024000004742800E47420070004073
:100FB0000000FFFF7047704770B590F83C20012A91
:100FC00032D0012480F83C40022280F83D200368A2
:100FD0005A689D6822F070060A6832435A60134BC3
:100FE00002689A4214D0B2F1804F11D0104B9A424D
:100FF0000ED0104B9A420BD00F4B9A4208D00F4B99
:101000009A4205D00E4B9A4202D00E4B9A4204D11E
:10101000496825F080031943916080F83D40002124
:1010200080F83C10084670BD022070BD00000140F1
:101030000004004000080040000C00400004014093
:10104000004001400018004010B5040003D094F89F
:101050003D0010B107E0012010BD002084F83C00E5
:10106000204600F01FF8022084F83D00211D206872
:1010700000F0E6FC012084F8460084F83E0084F885
:101080003F0084F8400084F8410084F8420084F86E
:10109000430084F8440084F8450084F83D000020B3
:1010A00010BD000008B500680B49884212D10B48FA
:1010B000016841F0020101600068002200F00200B6
:1010C000009006211D20FFF781FCBDE808401D208F
:1010D000FFF76EBC08BD000000040040403802402D
:1010E00090F83D10012901D001207047022180F8BD
:1010F0003D100168CA6842F00102CA6000681149E7
:10110000884214D0B0F1804F11D00F4988420ED0E0
:101110000E4988420BD00E49884208D00D498842BA
:1011200005D00D49884202D00C49884204D181681B
:1011300001F00701062903D0016841F001010160B7
:1011400000207047000001400004004000080040FB
:10115000000C004000040140004001400018004025
:1011600070B5044690F83C000025012817D00126F0
:1011700084F83C60022084F83D002068826822F0F8
:10118000770222F47F4282600868502838D00DDC54
:1011900020284FD005DC90B3102811D14AE002205E
:1011A00070BD302846D040280AD13BE060282FD0BF
:1011B00070280DD0B0F5805F03D0B0F5005F12D07D
:1011C000012584F83D60002084F83C00284670BD6D
:1011D000CB68D1E90121206800F096FC2068816885
:1011E00041F0770109E0CB68D1E90121206800F0E6
:1011F0008BFC2068816841F480418160E1E719E05F
:10120000CA684968206800F091FC5021206806E017
:10121000CA684968206800F09AFC6021206800F0E4
:101220007DFCCEE7CA684968206800F07FFC402159
:101230002068F4E7226801461046F0E7704770B571
:101240000446006801694FF00005C943890715D4B9
:10125000C168C943890711D4E91E016101202077C3
:10126000206880698007204602D0FFF7E7FF04E08E
:1012700000F098F8204600F096F82577206801697C
:10128000C943490717D4C168C943490713D46FF04C
:1012900004010161022020772068806910F4407FFA
:1012A000204602D0FFF7CAFF04E000F07BF820469A
:1012B00000F079F8257720680169C943090716D439
:1012C000C168C943090712D46FF008010161042005
:1012D00020772068C0698007204602D0FFF7AEFF64
:1012E00004E000F05FF8204600F05DF82577206804
:1012F0000169C943C90617D4C168C943C90613D4D3
:101300006FF010010161082020772068C06910F497
:10131000407F204602D0FFF791FF04E000F042F842
:10132000204600F040F8257720680169C943C907C5
:1013300008D1C168C943C90704D1891E016120468B
:1013400000F032F820680169C943090609D4C16870
:10135000C943090605D46FF0800101612046FFF7FB
:1013600029FE20680169C943490609D4C168C943F7
:10137000490605D46FF040010161204600F01EF8D7
:1013800020680169C94389060BD4C168C94389062D
:1013900007D46FF0200101612046BDE87040FFF7DF
:1013A0000ABE70BD7047704700680349884201D18A
:1013B000FFF786BA7047000000100040704770B514
:1013C000040004D094F83D00002510B106E001208F
:1013D00070BD84F83C50204600F022F8242084F8A8
:1013E0003D002068C16821F40051C160204600F032
:1013F000C1FB2068016921F49041016120684169C5
:1014000021F02A0141612068C16841F40051C160A6
:101410002564202084F83D0084F83E00002070BD43
:1014200010B586B0044614216846FEF775FF1449CE
:101430002068884221D113480021026842F010023E
:101440000260006800F0100005900E481438026831
:1014500042F001020260006800F0010005904FF4C4
:10146000C06000900220CDE9010103200390072015
:10147000049069460448FFF713F906B010BD000058
:101480000010014044380240000002402DE9F843BA
:10149000044690F83D001F4616460D4620284CD1C4
:1014A000C5B1BEB194F83C00012846D0012084F8B3
:1014B0003C004FF00008C4F84080212084F83D0033
:1014C000FFF7F8F9A6848146E684A068B0F5805F4E
:1014D00003D004E00120BDE8F883206928B12E463E
:1014E0005FF0000584F83C800EE00026FAE78021DA
:1014F000204600F0C5FBA0B9AEB116F8010B21687B
:101500004860E08C401EE084E08C4B464FF00002C7
:1015100000970028EBD14FF04001204600F0B0FBCF
:1015200030B10320D7E735F8020BC0F30800E6E737
:10153000202084F83D000020CDE70220CBE7FEE725
:1015400002480021816041607047000018000020BF
:101550000848816800290CD00021816001780322AD
:10156000491CB1FBF2F302FB1311017002A000F061
:10157000C7BB7047180000205B4B45595D20707257
:101580006573736564202D3E20675F6C65645F6DD5
:101590006F64653D25640D0A0000000000B587B04A
:1015A00014216846FEF7B8FE0B480021026842F09D
:1015B00040020260006800F0400005904FF4C04017
:1015C00000900120CDE90101039169460348FFF72E
:1015D00067F807B000BD0000303802400018024034
:1015E00010B5064C012251032046FFF75EF9204654
:1015F0000122BDE810409103FFF757B900180240DF
:1016000010B5074C00224FF400512046FFF74DF96A
:101610002046BDE8104000224FF48041FFF745B955
:10162000001802400B4810B5007818B1012805D009
:10163000022807D0BDE81040FFF7D2BFBDE8104038
:10164000FFF7DEBF00F008F8BDE810404FF4FA7075
:10165000FEF7F8BF1800002010B5064C4FF40051FB
:101660002046FFF71AF92046BDE810404FF48041AC
:10167000FFF713B90018024010B50F4A0C210820DB
:1016800000F024FD0D4CE060A8B10B4A0021183297
:101690000B4800F07BFD084A20603C3200210948DD
:1016A00000F074FD044A606060320021064800F0DA
:1016B0006DFDA06010BDFEE7BC39000800000020F1
:1016C00059180008ED180008451800082DE9F043E6
:1016D00087B014216846FEF71FFE2D4800240168DC
:1016E00041F020010160016801F0200105910168CD
:1016F00041F002010160016801F0020105910168F9
:1017000041F001010160016801F0010105910168EA
:1017100041F0400101600068DFF8788000F040008F
:101720004FF400660590002231464046FFF7BDF8B1
:10173000DFF864904FF4C047002239464846FFF76F
:10174000B4F8402000904FF404100125CDE90105C4
:1017500069461248FEF7A4FF0096CDE90154694698
:1017600040460394FEF79CFF0097CDE9015469467B
:1017700048460394FEF794FF002207211720FFF745
:1017800025F91720FFF714F907B0BDE8F083000032
:1017900030380240000402400018024000140240A9
:1017A00010B586B000241748009401940294039465
:1017B000049413490594016042F2CF01C0E9011479
:1017C0006321C0E903148461FFF73EFC08B1FEF712
:1017D00037FF4FF48050009069460A48FFF7C0FC7D
:1017E00008B1FEF72DFF049404A906480594FFF7FD
:1017F000E3FB002801D0FEF723FF06B010BD000078
:1018000000040040C40000200C4810B50A490160E3
:101810004FF4E1314160002181600C22C160C0E9D8
:1018200004128161C161FFF7CAFD002803D0BDE841
:101830001040FEF705BF10BD001001400C01002054
:10184000FEE7FEE7FFF7AAFE4FF4FA74FFF704FF86
:10185000204600F0CDFBF9E70EB5114C4FF4FA66C7
:1018600004F110050FA000F04BFA6846FEF716FED3
:101870008DF80400014613A000F042FA00F0CEF803
:101880000290009820619DF80400287100231A46F8
:101890006946E06800F046FC304600F0A9FBE1E74D
:1018A000000000205B53656E736F725D2062656699
:1018B0006F72652044485431315F526561640D0A8E
:1018C000000000005B53656E736F725D206166748B
:1018D00065722044485431315F526561642C207335
:1018E00074617475733D25640D0A000086B00E4C5A
:1018F0004FF0FF352B46002203A9E06800F0B4FB4F
:101900000028F7D19DF80C009DF80D10059A8DE880
:1019100007009DF80F309DF80E209DF8101003A0D1
:1019200000F0EEF9E6E70000000000205B554152B0
:10193000545D207374617475733D25642C20543D8F
:1019400025642E25642C20483D25642E25642C20FA
:101950007469636B3D256C750D0A000010B54FF07E
:10196000E020006901F074FE012803D0BDE81040BA
:1019700001F034BB10BD000030B593B03021684693
:10198000FEF7CAFC14210CA8FEF7C6FC1D48002572
:10199000016841F080510160006800F080501190B2
:1019A0001948016841F4804101600068022400F494
:1019B0008040119001200390102004900094069420
:1019C0000820CDE90750A820CDE9090404200B9098
:1019D0006846FFF739F908B172B6FEE70CA90F2087
:1019E00081E831004FF4A0500F904FF480501090D8
:1019F00005210CA8FFF71CF8002801D072B6FEE7FD
:101A000013B030BD40380240007000400248016809
:101A100041F470010160704788ED00E00148006802
:101A200070470000240000200148FFF708BC0000B8
:101A3000C40000200148FFF702BC00005001002054
:101A4000F0B50268254C264D264E274F274B4FF008
:101A5000804CA04209D0604507D0A84205D0B042D2
:101A600003D0B84201D0984204D122F0700E4A68E7
:101A700042EA0E02A0421BD0604519D0A84217D0FE
:101A8000B04215D0B84213D0984211D0184DA84298
:101A90000ED0184DA8420BD0174DA84208D0174DB4
:101AA000A84205D0164DA84202D0164DA84203D137
:101AB00022F44075CA682A434D6922F080022A4305
:101AC00002608A68C2620A688262A04201D09842BB
:101AD00001D10969016301214161F0BD00000140AC
:101AE0000004004000080040000C004000040140D9
:101AF00000400140004401400048014000180040FF
:101B0000001C00400020004010B5846842EA032217
:101B100024F47F440A432243826010BD826822F08D
:101B200070020A4342F007018160704710B5036AF2
:101B3000046A24F001040462846924F0F00444EA95
:101B4000021423F00A020A438461026210BD10B538
:101B5000036A23F0100303628369046A23F4704369
:101B600043EA023224F0A00343EA011182610162D8
:101B700010BD000070B5044600680169E26821F4F8
:101B80004051114301612169A068E269084361691C
:101B9000114308432168CA6849F20C639A4302431F
:101BA000CA6020684169A26921F440711143416112
:101BB00031492068884202D03049884202D1FFF77B
:101BC00001F801E0FEF7EEFFE26900231921642528
:101BD0003226B2F5004F626828D0A0FB0101930FB6
:101BE0009200FEF74FFB0146B0FBF5F06FF01802D4
:101BF000504301EB800006EB0010B0FBF5F000F065
:101C0000F002B1FBF5F002EB0012B1FBF5F06FF062
:101C10001803584301EB800006EB0010B0FBF5F011
:101C200000F00F0021681044886070BDA0FB010126
:101C300092185B41FEF726FB0146B0FBF5F002016E
:101C4000B1FBF5F06FF01803584301EB800006EB91
:101C5000C000B0FBF5F000F0F80002EB4002B1FB71
:101C6000F5F0584301EB800006EBC000B0FBF5F047
:101C700000F00700D6E7000000100140001401400A
:101C80002DE9F041984617460E460446069D27E08A
:101C9000681C25D02DB1FEF70DFEA0EB0800A84270
:101CA0001ED920680C3050E8001F21F4D07140E8A4
:101CB0000012002AF5D12068143050E8001F21F0EE
:101CC000010140E80012002AF5D1202084F83D00EF
:101CD00084F83E00002084F83C000320BDE8F08139
:101CE0002068006836EA000004D00020B842CFD057
:101CF0000020F3E70120F9E7FFF786BDFEE70000CB
:101D00000FB4054B10B503A9044A029800F028F857
:101D100010BC5DF814FB00008D1F0008C0000020FF
:101D20000907090E002804DB00F1E02080F8001408
:101D3000704700F00F0000F1E02080F8141D70479C
:101D400002E008C8121F08C1002AFAD17047704784
:101D5000002001E001C1121F002AFBD170470000E2
:101D60002DE9FF4F8BB09A460F460446002606E049
:101D700025280BD052460D999047641C761C20787C
:101D80000028F5D10FB03046BDE8F08F0025A946F8
:101D900001227D4900E0054314F8013F203B02FA8F
:101DA00003F00842F7D120782E2817D114F8010F3C
:101DB00045F004052A280ED06FF02F022078A0F1FC
:101DC000300109290AD809EB890102EB410100EB36
:101DD0000109641CF2E757F8049B641C20786C2806
:101DE0000DD004DC4C2812D06A2811D104E07428EC
:101DF0000DD07A280CD10AE045F4001507E061788F
:101E000045F48015814202D1641C05F58015641CDF
:101E1000207869283ED006DC0028B3D063280BD098
:101E2000642804D136E0732810D075285CD052465F
:101E30000D999047761CA5E017F8040B8DF800006B
:101E400000208DF80100E846012003E057F8048BDC
:101E50004FF0FF3069074FF0000501D40AE06D1C18
:101E60004D450DDA8542FADB18F805100029F6D148
:101E700006E06D1C8542FCDB18F805100029F8D13E
:101E80002E4404E018F8010B52460D9990476D1E40
:101E9000F8D277E000200A90C5F302504FF00A0B09
:101EA00002280CD001CFC117021E71F100020CDA1A
:101EB0000023D0EB030063EB01012D2208E0FF1D9E
:101EC00027F00707F7E80201EEE72A0504D52B22E1
:101ED0008DF82420012203E0EA070FD02022F7E743
:101EE0000DF12008089218E000200A90C5F3025076
:101EF0004FF00A0B022803D001CF00210022EFE7A8
:101F0000FF1D27F00707F7E80201F7E75A460A9B8B
:101F1000FEF7B8F9303208F8012D50EA0102F5D188
:101F2000ADEB080000F1200B680701D44FF0010968
:101F3000D94502DDA9EB0B0000E000208146002519
:101F400006E009A85246405D0D9990476D1C761C2D
:101F500008988542F5DB04E0302052460D99904701
:101F6000761CB9F10001A9F10109F5DC05E018F8CA
:101F7000010B52460D999047761CBBF10001ABF165
:101F8000010BF4DC641CFAE60928010013B54FF0DC
:101F9000FF33012269460248FFF778FA00981CBD1A
:101FA0000C010020FEF794FCFFF7E6FCFEF71EFB99
:101FB000FFF78CFBFFF7F4FBFFF726FCFEF7E8F9D1
:101FC00006A0FFF79DFE00F021F8FFF755FB00F09B
:101FD0002FF800BFFEF7F2F9FCE7000053797374A5
:101FE000656D20496E6974204F4B0D0A000000009A
:101FF00010B5EFF3058111B16FF0050403E0002483
:1020000008B100F08BFE204610BD0000EFF3058004
:1020100010B16FF0050070470448016811B14FF02E
:10202000FF307047012101600020704790000020C0
:1020300010B5EFF3058010B16FF0050010BD084832
:102040000168012902D04FF0FF3010BD054A002180
:1020500082F8141D0221016000F0C8FE002010BDAE
:10206000900000200BE000E0F8B51D466FF0030281
:102070006FF002064FF00004EFF30583A3B1F0B157
:10208000E9B1E5B9002200926A4601F001FA01289F
:1020900017D10098B0B10C494FF080500860BFF3E1
:1020A0004F8FBFF36F8F0DE048B141B12A4601F069
:1020B00053F9012806D025B16FF0010402E014465F
:1020C00000E034462046F8BD04ED00E0F8B51446C3
:1020D0004FF00005EFF3058212BB08B301B3A4B1C2
:1020E000D4E9023263B1502A1AD32269C2B16769B6
:1020F00000FB01F6B74213D3009500F0A6FF07E0FE
:1021000072B9226962B9626952B9002200F07CFF9B
:10211000050005D00CB1216800E0002100F0C8FDE9
:102120002846F8BDF8B51D466FF003026FF00206B1
:102130004FF00004EFF30583ABB100B3F9B1F5B98B
:102140000022134600926A4601F0A6F8012818D131
:102150000098B8B10C494FF080500860BFF34F8F22
:10216000BFF36F8F0EE050B149B100232A4600F053
:10217000E3FF012806D025B16FF0010402E0144608
:1021800000E034462046F8BD04ED00E02DE9FF41B3
:102190004FEA01034FF00005EFF30581039549BBBA
:1021A00040B38027182100244AB3166806B134468C
:1021B00096691EB13146761E382E02D21679F60780
:1021C00003D0002004B0BDE8F081566906B1B7081D
:1021D000D2F808C0BCF1000F0DD0D5685C2D18D323
:1021E00012693AB136B18DE806103A46214601F03F
:1021F00004FA03900DE0D6685EB912694AB903AAE1
:10220000CDE90012BAB2214601F0CAF9012800D086
:1022100003950398D6E700002DE9F041134C0F46D3
:102220000546E6682068001D00F044FC681C07D1E4
:1022300037B12168BDE8F0410D48091D00F08ABCA6
:1022400020683544B5424560216805D2A06BBDE8E1
:10225000F041091D00F066BC606B091D00F062FCD6
:10226000A06A854200D2A562BDE8F081400000204E
:10227000880600202DE9F041054600F077FC2D4C42
:10228000A068401CA06020682B4F10B1606930B37B
:102290002BE02560A068012827D1002606EB8600E8
:1022A00007EB800000F030FC761C382EF6D3234874
:1022B00000F02AFC2148143000F026FC1F4828308A
:1022C00000F022FC1D483C3000F01EFC1B48503042
:1022D00000F01AFC194860631430A06305E0206820
:1022E000E96AC06A884200D82560606A401C606262
:1022F0006864E86A2169884200D9206100EB8000A7
:1023000007EB8000291D00F025FC00F04FFC606900
:1023100000280CD02068E96AC06A884207D20849C0
:102320004FF080500860BFF34F8FBFF36F8FBDE851
:10233000F081000040000020D80100203806002075
:1023400004ED00E038B500F011FC104C2068C8B96D
:102350000F4800F0D9FB0E48143000F0D5FB0C48B4
:10236000E060143020610A4B0020F03B009003F144
:10237000500210210A2000F068FE206010B105A173
:1023800000F096FCBDE8384000F010BC7C00002056
:102390008C070020546D72510000000030B4026CB4
:1023A0000B46002A0BD0C1681144C1608468A14269
:1023B00001D30168C16030BC1846FDF794BF30BC42
:1023C00070472DE9F041856B174604460026026CE4
:1023D00082B1C7B1E068FDF786FFE168206C091A99
:1023E000E1602268914202D2A168081AE060022FDF
:1023F00016D017E02068A8B9A06801F0A1F9064638
:102400000020A0600EE06068FDF76DFF216C606841
:1024100008446060A168884204D32068606001E0DD
:1024200005B16D1E6D1CA5633046BDE8F08110B589
:10243000044690F8590058B101280CD002280FD05A
:10244000502080F31188BFF34F8FBFF36F8FFEE7EB
:10245000206B00F0BFFB2046BDE8104000F0BABB87
:1024600010BD000010484FF4A041420706D0C01D27
:102470000D4920F00700411AC1F5A0410B4A002385
:102480000144C2E900030839183A21F0070111603C
:102490004B600B600B1AC0E9001393604FF00040D3
:1024A00053605061704700006C0E0020AC000020AB
:1024B000144E154CA6F29C474FF08058DFF84C9014
:1024C00012E000BF00F052FBF068C568281D00F064
:1024D000F1FAA068401EA0606068401E606000F0D5
:1024E00065FB2846FFF7A3FF60680028EAD138683B
:1024F0000128F9D9C9F80080BFF34F8FBFF36F8F60
:10250000F2E70000740600204000002004ED00E027
:1025100070B51D46049C51B1C4F80020C4E90F01F8
:102520000121204600F0C4FD84F84C5070BD2460A9
:10253000F4E700002DE9F05F8846DDE90B941546CD
:10254000834691009A460A9EA522206BFDF7DDFE88
:102550006FF00301206B01EB8501084420F00707B1
:10256000780707D0502080F31188BFF34F8FBFF357
:102570006F8FFEE70025B8F1000F0FD05FF000006D
:10258000221818F8001082F8341018F8001011B151
:10259000401C1028F4D384F8435001E084F83450F0
:1025A000382E00D33726E662C4E91365201D00F0FB
:1025B000B6FA04F1180000F0B2FA2461C6F138004E
:1025C0006462A061656584F85850524659463846A1
:1025D00000F05AFA2060B9F1000F01D0C9F80040AC
:1025E000BDE8F09F30B5114900E011460A6882420B
:1025F000FBD34B685C18844203D1406818444860A0
:10260000084643681C18944209D1084C183C2468B9
:10261000A24209D052681A4442600A6812680260F5
:10262000814200D0086030BD0460F9E7AC000020B2
:1026300070B5002441600B4D0061914206D8D11A5B
:102640008269914206D2011D286907E09A4203D2AD
:10265000994201D3012403E0011DE86800F062FA09
:10266000204670BD7C00002010B5044600F07EFAC4
:10267000A06B28B15FF0000400F098FA204610BD6E
:102680000124F9E730B589B03C4D6EE0049800288C
:1026900006DADDE90601059A90470498002864DB14
:1026A000069C606910B1201D00F004FA03A800F038
:1026B000D7F8024604980A2857D2DFE800F005054B
:1026C000052D334A05052D3394F8280040F001000C
:1026D00084F828000599A069059B01442046FFF76E
:1026E000A7FF68B3216A2046884794F8280040076E
:1026F0003BD5002000900598A16900234218194697
:10270000204601F027F9D8B9502080F31188BFF393
:102710004F8FBFF36F8FFEE714F8280F20F00100F2
:10272000207022E094F8280040F0010084F828008E
:102730000598A06128B1811813462046FFF778FF5D
:1027400013E0502080F31188BFF34F8FBFF36F8FDA
:10275000FEE794F82800810703D4204600F03AFAF7
:1027600003E020F0010084F82800002204A9286872
:1027700000F0F2FD002889D109B030BD7C000020B6
:102780002DE9FC410F46054600F074FB01A800F05E
:1027900067F80446019818B101F04AF8BDE8FC81D9
:1027A000254EAFB130690068D0B30027291B3A46E7
:1027B000306800F091FA01F03BF80028EED11F4993
:1027C0004FF080500860BFF34F8FBFF36F8FE5E786
:1027D000A542EBD801F02CF8F0682746C068C46821
:1027E000201D00F067F994F82800410719D5A06969
:1027F0002B4641193A462046FFF71AFFA8B10020A0
:102800000346014600902A46204601F0A3F860B92D
:10281000502080F31188BFF34F8FBFF36F8FFEE717
:1028200007E020F0010084F82800216A204688474C
:10283000B4E70127BAE700007C00002004ED00E0C7
:102840000648416B096829B1416BC968C968496884
:10285000816270474FF0FF31FAE70000400000202E
:1028600070B5054600F002FF064E0446B06884428B
:1028700003D200F009F8012000E000202860204683
:10288000B46070BD7C000020F8B5194D20E0C06830
:10289000C4680668201D00F00DF9216A20468847AB
:1028A00094F82800400713D5A0693044B04206D9F7
:1028B00024616060211DE86800F034F908E0002020
:1028C0000346014600903246204601F043F838B1F5
:1028D000E86801680029DAD12969C5E90310F8BD63
:1028E000502080F31188BFF34F8FBFF36F8FFEE747
:1028F0007C00002008484068401C4FF0500080F3E6
:10290000118804D0BFF34F8FBFF36F8FFEE7BFF383
:102910004F8FBFF36F8FFEE7B4000020074CE068D5
:10292000016841B1C0680021D0F80000FFF728FF1E
:10293000FFF7A8FEF3E701210020F7E77C00002065
:102940002DE9F041044600F011F994F9455004F1E5
:10295000240609E0606A48B1304600F031FF08B152
:1029600000F00AFA6D1E6DB2002DF3DC4FF0FF3659
:1029700084F8456000F01AF900F0F8F894F9445032
:1029800004F1100709E0206948B1384600F018FF4B
:1029900008B100F0F1F96D1E6DB2002DF3DC84F882
:1029A0004460BDE8F04100F001B900002DE9F041BC
:1029B0000546002700F05EFA324E306808B9FFF78E
:1029C00051FD706905424ED1C5B3083568070ED078
:1029D00005F00700C0F108000544680707D0502043
:1029E00080F31188BFF34F8FBFF36F8FFEE72DB3D6
:1029F0007068854237D82348183001460C6801E0DA
:102A000020460C466168A94202D221680029F7D10C
:102A100031688C4227D007682168016060680837F8
:102A2000411B10290FD96019420708D0502080F3AC
:102A30001188BFF34F8FBFF36F8FFEE713E0416044
:102A40006560FFF7CFFD61687068401A7060B2681A
:102A5000904200D2B060706901430020C4E90001D7
:102A6000F068401CF06000F0E3FE780707D05020CB
:102A700080F31188BFF34F8FBFF36F8FFEE73846A7
:102A8000BDE8F0819400002010B5031F4FF0807462
:102A90001C601B1F21F001011960191F044B0B6002
:102AA00014390A60091F6FF0020244380A6010BD31
:102AB000F5280008D0E9013201699A60D0E90123C4
:102AC0005A604A68824201D182684A6000220261EB
:102AD0000868401E0860086870470000034B0360E8
:102AE00003F15C000860802010607047B40700208C
:102AF000044B036003F15C0008604FF480701060C9
:102B000070470000100A002000F108014FF0FF326A
:102B1000C0E90112C160016100210160704700211C
:102B20000161704730B50B685A1C02D000F10802F1
:102B300002E0026904E02246546825689D42FAD901
:102B400053684B6099608A60516008610168491C54
:102B5000016030BD42684A6093688B609368596039
:102B6000916008610168491C01607047502080F342
:102B70001188BFF34F8FBFF36F8F0A494868401C1D
:102B8000486001280CD10848006810F0FF0F07D0FA
:102B9000502080F31188BFF34F8FBFF36F8FFEE794
:102BA00070470000B400002004ED00E008494868C8
:102BB00028B1401E486001D180F311887047502031
:102BC00080F31188BFF34F8FBFF36F8FFEE70000D4
:102BD000B400002070B500282AD0164DA0F10804DA
:102BE00060686969084207D1502080F31188BFF3FB
:102BF0004F8FBFF36F8FFEE722683AB1502080F30A
:102C00001188BFF34F8FBFF36F8FFEE7884360607B
:102C100000F030F960686968084468602046FFF792
:102C2000E1FC2869401C2861BDE8704000F000BE4E
:102C300070BD0000940000204FF0E02000210161F1
:102C4000816105494FF47A720968B1FBF2F1491EBE
:102C500041610721016170473C00002010B5FDF77C
:102C6000FBFA114910280ED300F1E02090F8F00390
:102C70000A78904207D2502080F31188BFF34F8F1B
:102C8000BFF36F8FFEE709480068896800F4E060D1
:102C9000884207D9502080F31188BFF34F8FBFF3CC
:102CA0006F8FFEE710BD0000B40000200CED00E0C7
:102CB00010B5084B002200BF53F832401CB1521C23
:102CC000082AF9D310BD43F8321003EBC201486063
:102CD00010BD00009801002070B515460E46044650
:102CE000FFF744FF94F944100020491C01D184F8F7
:102CF000440094F94510491C01D184F84500FFF7C0
:102D000055FFA06B28B92A46314604F1240000F093
:102D100051F82046BDE87040FFF712BE10B5020022
:102D200014D00F48006B38B1502080F31188BFF3E6
:102D30004F8FBFF36F8FFEE700F09CF80021104625
:102D4000FFF76AFA00F074FD002807D105494FF03B
:102D500080500860BFF34F8FBFF36F8F10BD00002E
:102D60004000002004ED00E002490A6A0260C968E0
:102D7000416070474000002001490120C861704750
:102D80004000002010B50C4650B1094909681831BF
:102D9000FFF7C8FE2046BDE810400121FFF73CBA0E
:102DA000502080F31188BFF34F8FBFF36F8FFEE782
:102DB0004000002070B514460D4668B10A49096804
:102DC0001831FFF7C7FE0CB14FF0FF3521462846FA
:102DD000BDE87040FFF720BA502080F31188BFF3A0
:102DE0004F8FBFF36F8FFEE74000002030B587B0F4
:102DF0000024039405AA04A903A80494FFF76EFE17
:102E0000DDE903010094CDE90110002315A1174865
:102E1000059A00F0F2FB164D0028E8621FD000F082
:102E200069FD012809D0401C19D1502080F3118878
:102E3000BFF34F8FBFF36F8FFEE7502080F31188F1
:102E4000BFF34F8FBFF36F8F4FF0FF30A8620120A9
:102E50006861EC6007B0BDE8304000F045B807B0ED
:102E600030BD000049444C4500000000B12400087A
:102E7000400000200248016B491C016370470000BC
:102E800040000020164810B5016B11B10121C1614D
:102E900010BD0021C1610169124A01E0B9B1491EAA
:102EA00001EB810352F82330002BF7D001EB8103B3
:102EB00002EB830202F1080453685B685360A3428B
:102EC00001D15B685360DA680260016110BD502077
:102ED00080F31188BFF34F8FBFF36F8FFEE70000C1
:102EE00040000020D80100201CB537480168374A4F
:102EF000914207D1502080F31188BFF34F8FBFF369
:102F00006F8FFEE700683149491E884207D1502083
:102F100080F31188BFF34F8FBFF36F8FFEE72C490B
:102F200008780190FF20087008788DF800009DF85F
:102F300000009DF8002000F0F000904207D05020E3
:102F400080F31188BFF34F8FBFF36F8FFEE79DF8BB
:102F50000000204C00F0500020700720A06005E029
:102F60009DF8002052008DF80020401E9DF80020A2
:102F70001206F5D4A060032807D0502080F31188F2
:102F8000BFF34F8FBFF36F8FFEE74FF44070A06029
:102F9000019808700C482030016841F4700101600C
:102FA000016841F070410160FFF746FE002060605B
:102FB000FDF71AF90848016841F040410160FDF74A
:102FC000FFF800201CBD000000ED00E071C20F41C1
:102FD00000E400E0B400002034EF00E010B5502021
:102FE00080F31188BFF34F8FBFF36F8F00F044FB66
:102FF00018B104494FF080500860002080F3118818
:1030000010BD000004ED00E0F8B517460E460500BF
:1030100013D005FB06F05030FFF7C8FC04000AD0BF
:10302000002084F8460004F150023B463146284611
:103030000094FFF76DFA2046F8BD502080F3118808
:10304000BFF34F8FBFF36F8FFEE738B5049D18B104
:1030500053B1CAB181B120E0502080F31188BFF391
:103060004F8FBFF36F8FFEE7502080F31188BFF3BF
:103070004F8FBFF36F8FFEE7502080F31188BFF3AF
:103080004F8FBFF36F8FFEE739B1502080F3118867
:10309000BFF34F8FBFF36F8FFEE750241C46012311
:1030A00084F846302B460094FFF732FA204638BDAC
:1030B00070B50D46040025D0FFF758FDD4E90F2068
:1030C000216802FB0011A1600021A16321686160F9
:1030D0000A46D4E90F01401E00FB0121E1602146B0
:1030E0004FF0FF3001F8440F487004F110008DB12B
:1030F000FFF70AFD04F12400FFF706FDFFF756FD78
:10310000012070BD502080F31188BFF34F8FBFF3B3
:103110006F8FFEE721690029F0D000F051FB0028F5
:10312000ECD004494FF080500860BFF34F8FBFF3DD
:103130006F8FE3E704ED00E02DE9FF4782B01D4605
:103140008A464FF00008040003D0BAF1000F08D0FF
:1031500011E0502080F31188BFF34F8FBFF36F8FC2
:10316000FEE7206C38B1502080F31188BFF34F8FF9
:10317000BFF36F8FFEE7022D0AD1E06B012807D065
:10318000502080F31188BFF34F8FBFF36F8FFEE79E
:1031900000F05EFA3F4F4FF000094FF0805648B9FB
:1031A000049838B1502080F31188BFF34F8FBFF3DC
:1031B0006F8FFEE7FFF7DAFCA06BE16B884207D365
:1031C000022D05D00498D0B1B8F1000F1AD01EE03E
:1031D0002A4651462046FFF7F4F8616A19B104F116
:1031E000240000F0EDFA20B13E60BFF34F8FBFF333
:1031F0006F8FFFF7DBFC012006B0BDE8F087FFF71B
:10320000D5FC22E06846FFF7AFFD4FF00108FFF75D
:10321000CDFCFFF72FFEFFF7A9FC94F94400401CFA
:1032200001D184F8449094F94500401C01D184F800
:103230004590FFF7BBFC04A9684600F077F930B170
:103240002046FFF77DFB00F0F3FA0020D4E7FFF7FC
:103250008DFCA06BE16B884213D1FFF7A7FC04F152
:1032600010000499FFF78EFD2046FFF769FB00F080
:10327000DFFA00289ED13E60BFF34F8FBFF36F8F00
:1032800098E7FFF793FC2046FFF75AFB00F0D0FACF
:1032900090E7000004ED00E02DE9F0471F4690465E
:1032A0008946040003D0B9F1000F08D011E0502086
:1032B00080F31188BFF34F8FBFF36F8FFEE7206C51
:1032C00038B1502080F31188BFF34F8FBFF36F8F59
:1032D000FEE7022F0AD1E06B012807D0502080F3CF
:1032E0001188BFF34F8FBFF36F8FFEE7FFF7B6FC78
:1032F0005020EFF3118680F31188BFF34F8FBFF397
:103300006F8FA06BE16B884206D3022F04D00020A0
:1033100086F31188BDE8F08794F94550A06B3A46D2
:1033200049462046FFF74DF8681C04D06D1C84F810
:1033300045500120ECE7606A0028FAD004F124002F
:1033400000F03EFA0028F4D0B8F1000FF1D00121CE
:10335000C8F80010EDE700002DE9F747002683B01C
:103360008A46040003D0BAF1000F08D011E05020C3
:1033700080F31188BFF34F8FBFF36F8FFEE7206C90
:1033800038B1502080F31188BFF34F8FBFF36F8F98
:10339000FEE700F05DF9DFF8F4804FF000094FF030
:1033A000805748B9059838B1502080F31188BFF391
:1033B0004F8FBFF36F8FFEE7FFF7D8FBA56BC5B14B
:1033C00051462046FEF7EAFF6D1EA563206950B105
:1033D00004F1100000F0F4F928B1C8F80070BFF350
:1033E0004F8FBFF36F8FFFF7E1FB012006B0BDE801
:1033F000F087059808B11EB106E0FFF7D7FB27E07C
:103400006846FFF7B1FC0126FFF7D0FBFFF732FD5E
:10341000FFF7ACFB94F94400401C01D184F84490C0
:1034200094F94500401C01D184F84590FFF7BEFB9C
:1034300005A9684600F07AF8002820460AD0FFF770
:103440007FFA00F0F5F92046FFF70EF90028B3D017
:103450000020CBE7FFF708F990B104F124000599AB
:10346000FFF790FC2046FFF76BFA00F0E1F9002827
:10347000A2D1C8F80070BFF34F8FBFF36F8F9BE7E7
:103480002046FFF75DFA00F0D3F995E704ED00E080
:103490002DE9F04790468946040003D0B9F1000FAA
:1034A00008D011E0502080F31188BFF34F8FBFF395
:1034B0006F8FFEE7206C38B1502080F31188BFF386
:1034C0004F8FBFF36F8FFEE7FFF7C8FB5020EFF37E
:1034D000118680F31188BFF34F8FBFF36F8FA76BF7
:1034E000F7B194F9445049462046FEF757FF7F1E36
:1034F000A763681C04D06D1C84F84450012010E0C0
:1035000020690028FAD004F1100000F059F90028D1
:10351000F4D0B8F1000FF1D00121C8F80010EDE7A8
:10352000002086F31188BDE8F08700002DE9F04106
:103530000C46050011D0C4B1FFF718FB174BDA6831
:103540006E682068911B471C17D02F681B6A9F422A
:1035500019D0964217D8012410E0502080F311882A
:10356000BFF34F8FBFF36F8FFEE7502080F31188BA
:10357000BFF34F8FBFF36F8FFEE70024FFF716FBFB
:103580002046BDE8F081884205D9401A20602846CF
:10359000FFF7EAFBF1E700202060DCE740000020B5
:1035A0002DE9FF5F8346DDE90E87994616468A4678
:1035B0009000FFF7FBF905001CD05C20FFF7F6F93F
:1035C000040014D00020256384F85900CDE902409E
:1035D000CDE900874B46324651465846FEF7AAFFD2
:1035E0002046FEF747FE012004B0BDE8F09F2846C4
:1035F000FFF7F0FA4FF0FF30F6E7F0B585B0DDE900
:103600000B640A9DA6B1DCB15C27009726630226F5
:1036100084F85960002604AFCDE90246CDE9005791
:10362000FEF788FF2046FEF725FE049805B0F0BDA2
:10363000502080F31188BFF34F8FBFF36F8FFEE7E9
:10364000502080F31188BFF34F8FBFF36F8FFEE7D9
:103650000548416919B1006B18B10020704701207D
:103660007047022070470000400000200148C068F9
:1036700070470000400000202DE9F0412E4C00274B
:10368000206B28B1A069401CA0613846BDE8F081DC
:10369000E668761CE66013D1606B006838B1502094
:1036A00080F31188BFF34F8FBFF36F8FFEE7606B1E
:1036B000A16B6163A063206A401C2062FFF7C0F821
:1036C000A06ADFF87880864209D3606B0068A0B1F9
:1036D000606BC068C5686868864211D2A0622068C5
:1036E000C06A00EB800158F82100012800D90127A9
:1036F000E0690028C9D00127C7E74FF0FF30EDE7A8
:10370000281DFFF7D7F9A86A18B105F11800FFF7CF
:10371000D1F9E86A2169884200D9206100EB800173
:1037200008EB8100291DFFF715FAE86A2168C96ACC
:103730008842CAD30127C8E740000020D8010020F2
:1037400070B504004FF0000133D01B4D286884424F
:1037500007D0502080F31188BFF34F8FBFF36F8FD6
:10376000FEE7206D38B1401E2065E36CE26A9A42A4
:103770001FD040B11DE0502080F31188BFF34F8F60
:10378000BFF36F8FFEE7201DFFF794F9E06CE06256
:10379000C0F13800A061E06A2969884200D9286137
:1037A000064900EB800001EB8000211DFFF7D2F9F4
:1037B0000121084670BD000040000020D801002013
:1037C00070B5C068C46854B104F118000646FFF72C
:1037D00071F9144D286B50B13146134815E0502053
:1037E00080F31188BFF34F8FBFF36F8FFEE7201D6B
:1037F000FFF760F9E06A2969884200D928610B491E
:1038000000EB800001EB8000211DFFF7A3F9E06AC7
:103810002968C96A884202D90120E86170BD002088
:1038200070BD00004000002060060020D80100208C
:103830002DE9F0472C4D00242746286B38B1FFF7BF
:1038400095F9286B401E2863286B40B146E0502054
:1038500080F31188BFF34F8FBFF36F8FFEE7A96826
:10386000224E0120D1B3A6F5916980463068E0B1BF
:10387000F068C46804F11800FFF71CF9201DFFF779
:1038800019F9E06A2969884200D9286100EB8001B2
:1038900009EB8100211DFFF75DF9E06A2968C96A1B
:1038A0008842E3D3C5F81C80E0E70CB1FEF7C8FFFF
:1038B000AC694CB14FEA0806FFF7DEFE00B1EE61DD
:1038C000641EF9D10020A861E86938B108490127D0
:1038D00038070860BFF34F8FBFF36F8FFFF766F9AC
:1038E0003846BDE8F0870000400000206006002058
:1038F00004ED00E010B586B0FEF724FD114C206801
:10390000B8B100200390049005AA04A903A8FFF70A
:10391000EFF8DDE9032102208DE8070000230AA16A
:103920000B48059AFFF769FE606010B106B00120F0
:1039300010BD502080F31188BFF34F8FBFF36F8FFE
:10394000FEE700007C000020546D72205376630077
:103950001D2900082DE9FF411E46134602000A9D5D
:103960004FF0000016D0144C2768002F0FD0CDE97F
:1039700000130292062917DAFFF76AFE02284FF0B9
:1039800000030FD0002269462068FFF7D5FB04B082
:10399000BDE8F081502080F31188BFF34F8FBFF353
:1039A0006F8FFEE72A46EEE7002332466946384627
:1039B000FFF772FCEBE700007C000020583A00089B
:1039C00000000000000000000000000000000000F7
:1039D000000000007C3A0008000000000000000029
:1039E00000000000000000000008000020000000AF
:1039F0000000000000000000703A00080000000015
:103A000000000000000000000000000000080000AE
:103A1000180000000000000000000000643A0008E8
:103A20000000000000000000000000000000000096
:103A30000004000010000000000000000000000072
:103A4000000000000000000001020304060708094E
:103A5000000000000102030473656E736F725175FC
:103A6000657565004C45445F5461736B0000000050
:103A7000554152545F5461736B00000053656E737F
:103A80006F725F5461736B00A83A00080000002059
:103A9000C4000000401D00086C3B0008C40000206A
:103AA000AC610000501D0008000000000000000094
:103AB0000000000000000000000000000000000006
:103AC00000000000000000000000000000000000F6
:103AD00000000000000000000100000010000000D5
:103AE000000000000024F4000000000000000000BE
:103AF00000000000000000000000000000000000C6
:103B000000000000000000000000000000000000B5
:103B100000000000000000000000000000000000A5
:103B20000000000000000000000000000000000095
:103B30000000000000000000000000000000000085
:103B40000000000000000000000000000000000075
:103B50000000000000000000000000000000000065
:0C3B6000AAAAAAAA0000000000000000B1
:040000050800018965
:00000001FF
